:020000000328D3
:1000060083160313860187013F308312A200003056
:10001600A3000630A4000030A5005B30A600003027
:10002600A7004F30A8000030A9006630AA000030B3
:10003600AB006D30AC000030AD007D30AE0000305E
:10004600AF000730B0000030B1007F30B2000030A2
:10005600B3006F30B4000030B500B601B701803090
:100066003706F00080307002031D3B280A30360246
:1000760003187728B801B90180303906F0008030BE
:100086007002031D48280A30380203187328360800
:10009600F0003708F100F00DF10D70107008223EE7
:1000A6008400000887003808F0003908F100F00DD8
:1000B600F10D70107008223E8400000886001A3088
:1000C600FB005E30FC006E30FD00FD0B6828FC0B6B
:1000D6006828FB0B68280000B80A0319B90A3F28EC
:0C00E600B60A0319B70A3228302878281F
:02400E004A2F37
:00000001FF
