:0200000048288E
:0E0006008312031339088A00380882000800AC
:1000140003208A110A128000840AB80A0319B90A53
:08002400F003031D0A28080087
:10002C000030831203132106031D1E280A302006FC
:0E003C00031D2428B601B701A001A101080090
:10004A0083120313861B3A28B60A0319B70A073024
:10005A00FB005830FC005930FD00FD0B3228FC0B28
:10006A003228FB0B32280000000000303706031D3F
:10007A0040280A303606031D4728B601B701A00AF0
:06008A000319A10A0800A1
:1000900083120313A001A1013F30A200A301063087
:1000A000A400A5015B30A600A7014F30A800A9015C
:1000B0006630AA00AB016D30AC00AD017D30AE0002
:1000C000AF010730B000B1017F30B200B3016F3033
:1000D000B400B501B601B7018030831686008701F0
:1000E00083123608F0003708F100F00DF10D7010A2
:1000F0007008223E8400000886002008F0002108D5
:10010000F100F00DF10D70107008223E840000081F
:0A01100087002520162070288C2897
:02400E004A2F37
:00000001FF
